:100000001CC023C022C021C020C01FC01EC01DC0F4
:100010001CC01BC01AC019C018C017C016C015C01C
:1000200014C013C012C011C010C00FC00EC00DC04C
:100030000CC00BC032373935350011241FBECFEF4D
:10004000D4E0DEBFCDBF02D01EC0DACF18D021E091
:1000500041E050E032E001C021E089B190E09695A6
:100060008795969587958427952780FD02C020E087
:10007000F4CF222389F785B1832785B9EDCF529834
:0A0080005A9A219A0895F894FFCFD0
:00000001FF
